:03000000021BB030
:0C1BB000787FE4F6D8FD75813D021BF73C
:031EC6002566008E
:101E3100010900010BFF0108FFC10A090C30303014
:091E4100303030303030010AFF6E
:03000B00021D10C3
:101D1000C0E0C0F0C083C082C0D075D000C000C099
:101D200001C002C003C004C005C006C0070509E524
:101D30000964047005F509121EB9D007D006D00554
:101D4000D004D003D002D001D000D0D0D082D08334
:051D5000D0F0D0E032EC
:101E4B0075A882758922758C06758A06D28C121D2F
:061E5B0055120E9280FBFF
:0D1EB90075900F85900B7590F085900822B4
:100E9200E50B13920BE508C4540F139209200904C1
:100EA2007F0180027F00200B047E0180027E00EE23
:100EB2005FFFE50AFD3395E0FCC3ED9408EC648026
:100EC200948050047E0180027E00EE5F603D200926
:100ED200047F0180027F00200B047E0180027E00DD
:100EE200EE5F600FE50B13920BE508C4540F1392EB
:100EF2000980DB050A740C250AF876317F31121E4F
:100F0200747F29121E747F10121E61E50B13920B5F
:100F1200E508C41354071392092009047F018002D3
:100F22007F00200B047E0180027E00EE5FFFE50A57
:100F3200FD3395E0FCC3ED9408EC6480948050048A
:100F42007E0180027E00EE5F603E2009047F018008
:100F5200027F00200B047E0180027E00EE5F6010A3
:100F6200E50B13920BE508C413540713920980DAB8
:100F7200050A740C250AF876327F32121E747F2914
:100F8200121E747F10121E61E50B13920BE508C44A
:100F9200131354031392092009047F0180027F0076
:100FA200200B047E0180027E00EE5FFFE50AFD3326
:100FB20095E0FCC3ED9408EC6480948050047E01BB
:100FC20080027E00EE5F603F2009047F0180027F85
:100FD20000200B047E0180027E00EE5F6011E50BB3
:100FE20013920BE508C41313540313920980D90515
:100FF2000A740C250AF876337F33121E747F291285
:101002001E747F10121E61E50B13920BE508C413C8
:10101200131354011392092009047F0180027F00F7
:10102200200B047E0180027E00EE5FFF200A047E18
:101032000180027E00EE5FFFE50AFD3395E0FCC30E
:10104200ED9407EC6480948050047E0180027E005F
:10105200EE5F6042D20A2009047F0180027F0020F5
:101062000B047E0180027E00EE5F6012E50B13929C
:101072000BE508C4131313540113920980D8050A0F
:10108200740C250AF8762E7F2E121E747F29121EEA
:10109200747F10121E61E50BC31313920BE508C493
:1010A200540F1392092009047F0180027F00200B54
:1010B200047E0180027E00EE5FFFE50AFD3395E0CB
:1010C200FCC3ED9408EC6480948050047E0180029D
:1010D2007E00EE5F603F2009047F0180027F0020D6
:1010E2000B047E0180027E00EE5F6011E50BC313EC
:1010F20013920BE508C4540F13920980D9050A74A0
:101102000C250AF876347F34121E747F29121E745D
:101112007F10121E61E50BC31313920BE508C41373
:1011220054071392092009047F0180027F00200BDB
:10113200047E0180027E00EE5FFFE50AFD3395E04A
:10114200FCC3ED9408EC6480948050047E0180021C
:101152007E00EE5F60402009047F0180027F002054
:101162000B047E0180027E00EE5F6012E50BC3136A
:1011720013920BE508C413540713920980D8050A89
:10118200740C250AF876357F35121E747F29121EDB
:10119200747F10121E61E50BC31313920BE508C492
:1011A200131354031392092009047F0180027F0064
:1011B200200B047E0180027E00EE5FFFE50AFD3314
:1011C20095E0FCC3ED9408EC6480948050047E01A9
:1011D20080027E00EE5F60412009047F0180027F71
:1011E20000200B047E0180027E00EE5F6013E50B9F
:1011F200C31313920BE508C413135403139209800B
:10120200D7050A740C250AF876367F36121E747FCB
:1012120029121E747F10121E61E50B1313543F1323
:10122200920BE508C4540F1392092009047F018030
:10123200027F00200B047E0180027E00EE5FFFE54C
:101242000AFD3395E0FCC3ED9408EC648094805071
:10125200047E0180027E00EE5F60412009047F016E
:1012620080027F00200B047E0180027E00EE5F6020
:1012720013E50B1313543F13920BE508C4540F13D9
:10128200920980D7050A740C250AF876377F37123F
:101292001E747F29121E747F10121E61E50B131338
:1012A200543F13920BE508C4135407139209200903
:1012B200047F0180027F00200B047E0180027E00F9
:1012C200EE5FFFE50AFD3395E0FCC3ED9408EC64A4
:1012D20080948050047E0180027E00EE5F60422096
:1012E20009047F0180027F00200B047E0180027EC0
:1012F20000EE5F6014E50B1313543F13920BE508E5
:10130200C413540713920980D6050A740C250AF8EF
:1013120076387F38121E747F29121E747F10121EB7
:1013220061E50B1313543F13920BE508C4131354D6
:10133200031392092009047F0180027F00200B041D
:101342007E0180027E00EE5FFFE50AFD3395E0FC40
:10135200C3ED9408EC6480948050047E0180027E88
:1013620000EE5F60432009047F0180027F00200BB2
:10137200047E0180027E00EE5F6015E50B131354BC
:101382003F13920BE508C41313540313920980D53B
:10139200050A740C250AF876397F39121E747F29E2
:1013A200121E747F10121E61E50B131313541F13C8
:1013B200920BE508C4540F1392092009047F01809F
:1013C200027F00200B047E0180027E00EE5F602D12
:1013D2002009047F0180027F00200B047E0180022D
:1013E2007E00EE5F6014E50B131313541F13920B70
:1013F200E508C4540F13920980D6121DE8E50B13B9
:101402001313541F13920BE508C4135407139209C4
:101412002009047F0180027F00200B047E018002EC
:101422007E00EE5FFFE50AFD3395E0FCC3ED940814
:10143200EC6480948050047E0180027E00EE5F6046
:10144200432009047F0180027F00200B047E01807B
:10145200027E00EE5F6015E50B131313541F139207
:101462000BE508C413540713920980D5050A740CBE
:10147200250AF876307F30121E747F29121E747F7F
:1014820010121E61E50B131313541F13920BE50880
:10149200C4131354031392092009047F0180027FAD
:1014A20000200B047E0180027E00EE5F603C20097A
:1014B200047F0180027F00200B047E0180027E00F7
:1014C200EE5F6016E50B131313541F13920BE5081E
:1014D200C41313540313920980D4200A07740D25F0
:0B14E2000AF8762E121D8C121E0E223E
:0F1E9A00E4FFEFC394287480948050030F80F30B
:011EA9002216
:0E1EAA00E4FFFE0FBF00010EBE0BF8BFB8F53F
:011EB8002207
:101E6100AE07C2A0121E9AD2A1121E9A8E80C2A1E2
:031E7100021E9AB4
:101E7400AE07D2A0121E9AD2A1121E9A8E80C2A1BF
:031E8400021E9AA1
:101D55007F38121E617F0F121E617F80121E617F08
:101D650073121E747F69121E747F6E121E747F2893
:101D7500121E747F20121E747F29121E747F10128A
:071D85001E617F10021E61C8
:101DE8007F01121E61121EAA121D55C20A750AFF32
:101DF800E4FFEFC39409748094805009740C2FF8A1
:051E080076300F80EDB3
:011E0D0022B2
:101E0E007FC0121E617F3D121E74E4FDEDC3940966
:101E1E0074809480500C740C2DF8E6FF121E740D15
:021E2E0080EA48
:011E3000228F
:101D8C007B007A00790C121CC87529D075280F7548
:101D9C0027C9752640121C3C1219BA7525FF7526E9
:101DAC001E7527C68F2B8E2A8D298C287B007A00D6
:051DBC00790C0215493D
:1014ED00E5392425F8E605392278223007027825DA
:1014FD00E475F001120E5C020DD62000EB7F2ED2AA
:10150D00008018EF540F2490D43440D4FF30040BD6
:10151D00EF24BFB41A0050032461FFE53A600215B1
:10152D003A053DE53D7002053C30070D7822E47526
:10153D00F001120E5CEF020E1C021DC17403D207E6
:10154D008003E4C207F5398B228A238924E4F53A16
:10155D00F53CF53DE53A60077F2012152880F575BD
:10156D003BFFC201C200C202C203C205C206C208CD
:10157D001214F6FF700D3007057F00121539AF3DBF
:10158D00AE3C22B4255FC2D5C2041214F6FF24D09E
:10159D00B40A00501A75F00A783A30D50508B6FF2E
:1015AD000106C6A426F620D5047002D20380D924E4
:1015BD00CFB41A00EF5004C2E5D204021826D201AE
:1015CD0080C6D20080C0D20280BCD2D580BAD205EE
:1015DD0080B47F201215282002077401B53A00400F
:1015ED00F11214EDFF121528021561D208D20680F2
:1015FD00951214EDFB1214EDFA1214EDF94A4B701D
:10160D0006791D7A197BFF20022EE53A602A7E00AD
:10161D008E82758300120DEF60060EEE653B70F045
:10162D00C2D5EBC0E0EAC0E0E9C0E0EE121886D00A
:10163D00E0F9D0E0FAD0E0FB120DD6FF60AAEBC0C6
:10164D00E0EAC0E0E9C0E0121528D0E02401F9D0AD
:10165D00E03400FAD0E0FBE53B0460DCD53BD980FB
:10166D0087D20280A212186960F7E53B700104125F
:10167D000BD6A93B600DE53B600914F53B12191023
:10168D00EF60F3EA30E702F404C3995077EAF425EA
:10169D003B0430E701E404F53B800D12186960C18D
:1016AD00EA053B253B120BD6EA7838F630E701E424
:1016BD00253B04D53B0420050114121886E4C0E037
:1016CD001219107838E6601320E70714F61215107A
:1016DD00802204F6D0E014C0E07F00121510E53B27
:1016ED006007121507153B800B300503121507D047
:1016FD00E0021561D0E00480C512186960A0E53BD9
:10170D0004120BD67838EAF6E53B20050260010499
:05171D002404121886EF
:1017220074FF04C0E0121910121510E53B200502E7
:101732006003121507D0E0B53BE87F4512151A7811
:1017420038E67F2B30E7047F2DF404C0E012152821
:10175200D0E075F00A84C0F0121511D0E012151114
:10176200021561791080027908C206C2088008D287
:10177200D5790A8004790AC2D5E53B047002F53BAB
:10178200E4FAFDFEFF1214EDFC7B08200113121493
:10179200EDFD7B1030000A1214EDFE1214EDFF7BFA
:1017A20020EC3382D592D55013C3E43000069FFF5C
:1017B200E49EFEE42001039DFDE49CFCE4CBF8C220
:1017C20001EC700CCFCECDCCE824F8F870F3801782
:1017D200C3EF33FFEE33FEED33FDEC33FCEB33FBB3
:1017E200994002FB0FD8E9EB300105F8D0E0C4487C
:1017F200B201C0E00AEC4D4E4F78207B0070C2EA85
:10180200B53B0040BCC0E0121888D0F0D0E0200107
:1018120004C4C0E0C4B201C0F0121511D0F0D5F07A
:10182200EB021561120E6C15FE5317655815CF4C5D
:1018320015CB4217694F17714417714915E44317C5
:10184200775516A846170645167247193D5015D307
:101852002D15D72E15FA2B15DB2315F82019262A5C
:10186200159348000015F2E53BB4FF03753B0612E1
:1018720014EDFC1214EDFD1214EDFE1214EDFF78BE
:1018820031020C05790AA2D5200314300509B910DA
:10189200020404B9080104A2D52006025001042062
:1018A20002689202B53A005034C0E07F203003193A
:1018B2007F30A20272067205500F1218DFC202C2F6
:1018C20006C205C2087F30800F300503E9C0E0126E
:1018D2001528300503D0E0F9D0E0B53ACC30051731
:1018E2007F30B9100C1215287F583004077F78809A
:1018F20003B908031215283002057F2D0215287F2F
:10190200202008F87F2B2006F322920280CF7F004E
:10191200B4070050052431F8E6FF22286E756C6C7E
:101922002900D2011214ED3001F8C201783A30D503
:101932000108F60215932D504349581214ED240361
:10194200B405004001E490193893121519743A1243
:0A1952001519D203753A0402176557
:101CC800D2008B228A238924121D04C0E0FF121E31
:101CD80087D0E040F3121ADD400122ECC0E0EDC0ED
:101CE800E0EEC0E0EFC0E0121D04D0F0AFF0D0F09D
:101CF800AEF0D0F0ADF0D0F0ACF080D9E475F001E2
:081D08007822120E5C020DD6D8
:10195C003A70FA83BCAAE9E43E81E0F8BF9DE9E65F
:10196C003F80000039283C1ABB9969663DA335E3DA
:10197C00BF255DE73FC90FDB418DDBCCC44936EE9B
:10198C0045C9913FC5B0F83D3F800000C317F53401
:10199C00452FFA73C60AFDDD121A4B04A2E1920020
:1019AC001420E01590195C7404120D088026121A8C
:1019BC004B30E102B20020E0EB8C228D238E248F81
:1019CC00259019707404120D08A822A923AA24AB1F
:1019DC0025120942ED4C6007300004EC6480FC22B7
:1019EC00121A4BC0E08C228D238E248F25901994D3
:1019FC007403120D08A822A923AA24AB25120942AC
:101A0C00ECC522FCEDC523FDEEC524FEEFC525FF7C
:101A1C009019847403120D08D082A822A923AA2439
:101A2C00AB25E58230E007120A4BB20080A6EFCB63
:101A3C00FFEECAFEEDC9FDECC8FC120A4B8095ED19
:101A4C0033EC547FCC33920024605007D0E0D0E0CC
:101A5C000208357B837AF97922783E120942EDF936
:101A6C0033ECF83324815011EFFBEEFA120B9F127A
:101A7C000B61ECB2E7FC120851ED33EC33602F2410
:101A8C0003F8C313FCED92E7FDE82481E4501FEC4E
:101A9C00F8EDF9EEFAEFFB120B9FEF04C2E0FCF548
:101AAC0082120B6BECB2E7FC120851E58203FAEDE3
:0E1ABC0033EC3360071413FCED92E7FDEA22D1
:101C3C008F258E248D238C22E4FFFEFDFCAB29AA7C
:101C4C0028A927A826120AE87005FFFEFDFC22AB86
:101C5C0029AA28A927A826AF25AE24AD23AC221289
:101C6C000A4B120B9F8F2D8E2C8D2B8C2AAF25AEF1
:101C7C0024AD23AC22ECC0E0EDC0E0EEC0E0EFC040
:101C8C00E0AF2DAE2CAD2BAC2AEC120B61AB29AA1C
:101C9C0028A927A826120942C8ECC8C9EDC9CAEE62
:101CAC00CACBEFCBD0E0FFD0E0FED0E0FDD0E0FC23
:0C1CBC0012084D8F258E248D238C2222CF
:10080000E9D2E7C933E833F892D5EDD2E7CD33EC3E
:0708100033FC5002B2D522B7
:10081700EC30E7100FBF000C0EBE00080DBD000442
:100827000BEB6014A2D5EB13FCED92E7FD2274FFEE
:10083700FCFDFEFF22E480F8A2D574FF13FC7D8047
:03084700E480EF5B
:10084A00020835E86480F8E933E83360110460F09F
:10085A00ED33EC337009E8FCE9FDEAFEEBFF220414
:10086A0060DED3EB9FEA9EE99DE8C2E78CF0C2F70F
:10087A0095F0400CE8CCF8E9CDF9EACEFAEBCFFBDB
:10088A0012080085D0F05804700320D5B3E804702C
:10089A00075002B2D502083F92D5EC0460F7E4CCC7
:1008AA00C0E0C398F8603B94186008400DD0E0FBA4
:1008BA00020817E4FBFAC9FC8028E830E406E4C918
:1008CA00FBE4CAFCE830E305E4C9CACBFCE85407F8
:1008DA006010F8C3E913F9EA13FAEB13FBEC13FC03
:1008EA00D8F130F52FC3E49CFCEF9BFFEE9AFEEDA6
:1008FA0099FDD0E0FBEF4E4D4C701222DB0302084B
:10090A003CEC2CFCEF33FFEE33FEED33FDED30E72C
:10091A00EB020817EF2BFFEE3AFEED39FDD0E0FBB4
:10092A0050130BBB000302083FED13FDEE13FEEF5D
:08093A0013FFEC13FC02081787
:10094200EC4D6011E8497017ED33EC3304600DE4AF
:10095200FCFFFEFD22E933E8330470F80208351289
:10096200080058046009E4CC24815006285009028A
:10097200083F28400302083CC0E0EB4A7044B980BB
:1009820006D0E0FB02082BEF4E701CBD8008EBFF87
:10099200EAFEE9FD80EBE98DF0A4FEE5F0020A2B08
:1009A200E9CDF9EAFEEBFFEF89F0A4FCE5F0CE8990
:1009B200F0A42EFFE435F0CD89F0A42DFEE435F04D
:1009C2008067EF4E7005BD80D780C3EF8BF0A4AC7B
:1009D200F0EE8BF0A42CFCE435F0F8EF8AF0A42CB6
:1009E200E5F038FCE433CB8DF0A42CFCE5F03BF8C9
:1009F200EE8AF0A42CFCE5F038F8E433CF89F0A4B9
:100A02002CFCE5F038CF3400CE89F0A42FFFE5F0BE
:100A12003EFEE433C98DF0A42EFEE5F039CD8AF016
:100A2200A42FFFE5F03EFEE43DFD33D0E0FB50078E
:100A32000BBB000F02083FEC2CFCEF33FFEE33FE42
:060A4200ED33FD02081770
:100A480002083FEC5D046005E859047003020835AC
:100A5800120800580460F6EC4860F2EC7004FDFEE1
:100A6800FF22C860DB2481C85009C3986002500681
:100A780002083C9850CAF582E9294B4A7005AB82B6
:100A880002082B75F0007C1A7880C3EF9BEE9AED74
:100A980099400DC3EF9BFFEE9AFEED99FDE842F0F9
:100AA800DC23ACF0D0E0FFD0E0FED0E0FDAB82204C
:100AB800E7101BEB60BAEC2CFCEF33FFEE33FEEDD6
:100AC80033FD020817E803F830E705C0F075F000B9
:100AD800EF2FFFEE33FEED33FD40B830E7C280AABA
:100AE80074F8CC6480CCC86480C8F58204604FC3B5
:100AF800EB9FF5F0EA9E42F0E99D42F0E89C45F054
:100B0800603C501DE5825FFFE582D313CB5BCBF4DD
:100B18002B5582FB50280ABA002409B90020088006
:100B28001DE5825BFBE582D313CF5FCFF4C3132FA0
:100B38005582FF50090EBE00050DBD00010CC3EB28
:100B48009FF5F0EA9E42F0E99D42F0E89C45F0608E
:090B580007CC4820E701B3EC22B0
:100B610075F020800E75F010800575F0087D007E0F
:100B7100007F003392D530D503120E2EEC33401096
:100B8100EF33FFEE33FEED33FDEC33FCD5F0ED2218
:0E0B9100E5F0247EA2D513CC92E7CDCEFF2254
:100B9F00EDD2E7CD33EC3392D524814006E4FFFE4E
:100BAF00FDFC22FCE4CFCECDCC24E0501174FF80AD
:100BBF00EDC3CC13CCCD13CDCE13CECF13CF04704A
:070BCF00F030D5DE020E2E0E
:100BD600F920E72824F950037907E4F42402FB18E6
:100BE600DBFDE624FB5014E9600DE4F618E604F696
:0F0BF600B40A08E4F6D9F57401F60A22C2D52232
:100C0500ED33EC3392D5FA602AB4FF33EDC2E77BBE
:100C1500FF60067A0C792AE4227A0C793320D50410
:100C25007A0C792E224E614E002B494E46002D49F5
:100C35004E4600E47A08F608DAFC7B00740722E8E1
:100C4500C0E0ECC0E0EDC0E0EEC0E0EFC0E0EA756A
:100C5500F010A4CAABF075F04DA42BFBE435F0FC05
:100C6500EA2410FAEB34C5FBEC34D9FCEDC2E7FFFE
:100C750075F056A4F42411C5F0F434C58FF0A42AF8
:100C8500E5F03BE43CF620E714120D96D0E0FFD0EA
:100C9500E0FED0E0FDD0E0FC120A4B8014F4041213
:100CA5000D96D0E0FFD0E0FED0E0FDD0E0FC1209CB
:100CB50042D0E0F8E6FAEDD2E7CD33EC332482FBFF
:100CC500E4C3CF33CFCE33CECD33CD33DBF37B0788
:100CD50075F00A846004F6081B0AE5F0F6088FF043
:100CE500740AA4FFACF08EF0740AA42CFEACF0508C
:100CF500010C8DF0740AA42CFDE435F0F608DBDE5A
:030D05007407224E
:101ACA00C201C202C203C204F9E4F525F526FCFDEF
:101ADA00FEFFE91000EA20030CB42D04D203D3223E
:101AEA00B42B02D32224D0504794095041240A30FF
:101AFA000415F88526F0740AA42872E74051C5F047
:101B0A00704D85F026D322D202C0E0E4FBFA792098
:101B1A007841120942ECF8EDF9EEFAEFFBD0E0FC5D
:101B2A00E4120B6B1208513001B41525D322240A92
:101B3A00200420B4FE0720011AD201D32224EB602C
:101B4A000424E0700EA2039201D204C203D322C37A
:101B5A00020835E430040BE526300302F404A2013E
:101B6A0092033002EA252520D2E5A2E79204500228
:101B7A00F404B4260050D8CCC0E0EDC0E0EEC0E0DA
:101B8A00EFC0E0EC120D96D0E0FFD0E0FED0E0FD11
:101B9A00D0E0FC2004051209428003120A4B3003EC
:061BAA0003120D55C322D9
:100D0800C0E0EFFBEEFAEDF9ECF8120942D0E0F59D
:100D1800F0EFFBEEFAEDF9ECF8120E3CA3A3A3A357
:100D2800E8C0E0E9C0E0EAC0E0EBC0E0C0F01209CA
:100D380042120E4CA3A3A3A3120851D0F0D0E0FB9B
:0D0D4800D0E0FAD0E0F9D0E0F8D5F0D422E8
:100D5500ED33EC33600A047003BD8004ECB2E7FCAC
:010D6500226B
:100D66003F8000004120000042C80000447A000095
:100D7600461C400047C35000497424004B18968017
:100D86004CBEBC205A0E1BCA6753C21C749DC5AE0E
:100D9600FB60065407601C2323120DC4EB54386015
:100DA60009120DB0120DBF120942ECF8EDF9EEFA78
:100DB600EFCB22EB120DBF80F1543803241C900DAB
:100DC60066FE93FC0EEE93FD0EEE930ECE93FF227F
:101BBC00021E4BE493A3F8E493A34003F68001F2D6
:101BCC0008DFF48029E493A3F85407240CC8C3332A
:101BDC00C4540F4420C8834004F456800146F6DFF9
:101BEC00E4800B0102040810204080901E31E47E3A
:101BFC00019360BCA3FF543F30E509541FFEE493EE
:101C0C00A360010ECF54C025E060A840B8E493A3B4
:101C1C00FAE493A3F8E493A3C8C582C8CAC583CADF
:101C2C00F0A3C8C582C8CAC583CADFE9DEE780BE97
:011E4A000097
:100DD600BB010689828A83E0225002E722BBFE021B
:090DE600E32289828A83E493224E
:100DEF00BB010CE58229F582E5833AF583E02250B9
:100DFF0006E92582F8E622BBFE06E92582F8E22203
:0D0E0F00E58229F582E5833AF583E493221C
:100E1C00BB010689828A83F0225002F722BBFE01B5
:020E2C00F322AF
:0E0E2E00C3E49FFFE49EFEE49DFDE49CFC22D5
:100E3C00E493FC740193FD740293FE740393FF22FC
:100E4C00E493F8740193F9740293FA740393FB22FC
:100E5C00FAE6FB0808E6F925F0F618E6CA3AF62297
:100E6C00D083D082F8E4937012740193700DA3A315
:100E7C0093F8740193F5828883E473740293686029
:060E8C00EFA3A3A380DF29
:101DC100EFB40A07740D121DCC740A309811A8994A
:101DD100B8130CC2983098FDA899C298B811F63082
:071DE10099FDC299F599225A
:101E8700EFC394094005EF940E4003BF2003D380AE
:031E970001C32262
:00000001FF
